:100000000C9434000C9449000C9449000C94490061
:100010000C9449000C9449000C9449000C9449003C
:100020000C9449000C9449000C9449000C9449002C
:100030000C9449000C9449000C9449000C9449001C
:100040000C9449000C9449000C9449000C9449000C
:100050000C9449000C9449000C9449000C944900FC
:100060000C9449000C94490011241FBECFEFD8E036
:10007000DEBFCDBF11E0A0E0B1E0ECE5F3E002C0EF
:1000800005900D92AA32B107D9F70E9495010C9400
:10009000AC010C94000060FF11C05C9A61FF10C0BD
:1000A0005D9A62FF0FC05E9A63FF0EC05F9A599A15
:1000B00085E08A95F1F70000599808955C98EECF95
:1000C0005D98EFCF5E98F0CF5F98F1CF1F93CF93FD
:1000D000DF93D82FC92F162F62956F700E944B00A7
:1000E000612F8D2F9C2F0E944B0087EC90E0019791
:1000F000F1F700C00000DF91CF911F910895429564
:10010000440F440F407C6058640F0C94660061E01B
:100110000E9466008FE39FE10197F1F700C00000A5
:10012000089562E00E9466008FE39FE10197F1F776
:1001300000C0000008951F93CF93DF93D82FC92FDD
:10014000162F62956F700E944B00612F8D2F9C2F90
:10015000DF91CF911F910C944B00589A0E949B0005
:1001600058980895EF92FF920F931F93CF93DF93C8
:10017000182F092FEB01E12CF12C8991811107C077
:10018000DF91CF911F910F91FF90EF90089580E143
:10019000E816F10429F460EC812F902F0E9466008C
:1001A000FE016291812F902F0E94AD008FEFE81A1F
:1001B000F80AE3CFEF92FF920F931F93CF93DF9351
:1001C0008C017A01660F660F660F687360640E9487
:1001D0006600E701C70108967C016991C8010E9489
:1001E000AD00CE15DF05C9F7DF91CF911F910F91BB
:1001F000FF90EF9008950F931F93CF93DF93CDB7A8
:10020000DEB7A0970FB6F894DEBF0FBECDBF8C014E
:10021000509A519A549A559A569A579A8FE59AEE4F
:100220000197F1F700C0000063E0C8010E944B0095
:100230008FE19EE40197F1F700C0000063E0C80180
:100240000E944B008FE891E00197F1F700C0000099
:1002500063E0C8010E944B0062E0C8010E944B00AD
:1002600068E2C8010E9466006CE0C8010E94660056
:10027000C8010E94870066E0C8010E94660095E8F8
:100280009A95F1F7000088E0E0E0F1E0DE01599690
:1002900001900D928A95E1F7AE01475E5F4F60E0F5
:1002A000C8010E94DA0088E0E0E2F1E0DE01519648
:1002B00001900D928A95E1F7AE014F5E5F4F61E0CC
:1002C000C8010E94DA0088E0E8E0F1E0DE0119965A
:1002D00001900D928A95E1F7AE01475F5F4F62E0B2
:1002E000C8010E94DA0088E0E0E1F1E0DE01119649
:1002F00001900D928A95E1F7AE014F5F5F4F63E089
:10030000C8010E94DA00A0960FB6F894DEBF0FBEB7
:10031000CDBFDF91CF911F910F910895FC01118204
:100320001082138212820C94FB0000D000D0CDB753
:10033000DEB7CE0101960E948E01CE0101960E9489
:10034000FB00CE0101960E94870068E171E0CE01BA
:0C03500001960E94B200FFCFF894FFCF8E
:10035C0004000E010F110F00000C0A090A0C00001A
:10036C0000060A120A06000048656A2068656A00E1
:0A037C001F110A04040A111F0000FB
:00000001FF
