:100000000C9434000C9451000C9451000C94510049
:100010000C9451000C9451000C9451000C9451001C
:100020000C9451000C9451000C9451000C9451000C
:100030000C9451000C9451000C9451000C945100FC
:100040000C9451000C9451000C9451000C945100EC
:100050000C9451000C9451000C9451000C945100DC
:100060000C9451000C94510011241FBECFEFD8E026
:10007000DEBFCDBF11E0A0E0B1E0EEE4F7E002C0EA
:1000800005900D92A239B107D9F721E0A2E9B1E0BC
:1000900001C01D92A639B207E1F70E94F8010C9445
:1000A000A5030C94000060FF11C05C9A61FF10C0B2
:1000B0005D9A62FF0FC05E9A63FF0EC05F9A599A05
:1000C00085E08A95F1F70000599808955C98EECF85
:1000D0005D98EFCF5E98F0CF5F98F1CF1F93CF93ED
:1000E000DF93D82FC92F162F62956F700E9453008F
:1000F000612F8D2F9C2F0E94530087EC90E0019779
:10010000F1F700C00000DF91CF911F910895429553
:10011000440F440F407C6058640F0C946E0061E003
:100120000E946E008FE39FE10197F1F700C000008D
:10013000089562E00E946E008FE39FE10197F1F75E
:1001400000C0000008951F93CF93DF93D82FC92FCD
:10015000162F62956F700E945300612F8D2F9C2F78
:10016000DF91CF911F910C945300589A0E94A300E5
:1001700058980895EF92FF920F931F93CF93DF93B8
:10018000182F092FEB01E12CF12C8991811107C067
:10019000DF91CF911F910F91FF90EF90089580E133
:1001A000E816F10429F460EC812F902F0E946E0074
:1001B000FE016291812F902F0E94B5008FEFE81A07
:1001C000F80AE3CFEF92FF920F931F93CF93DF9341
:1001D0008C017A01660F660F660F687360640E9477
:1001E0006E00E701C70108967C016991C8010E9471
:1001F000B500CE15DF05C9F7DF91CF911F910F91A3
:10020000FF90EF9008950F931F93CF93DF93CDB797
:10021000DEB7A0970FB6F894DEBF0FBECDBF8C013E
:10022000509A519A549A559A569A579A8FE59AEE3F
:100230000197F1F700C0000063E0C8010E9453007D
:100240008FE19EE40197F1F700C0000063E0C80170
:100250000E9453008FE891E00197F1F700C0000081
:1002600063E0C8010E94530062E0C8010E9453008D
:1002700068E2C8010E946E006CE0C8010E946E0036
:10028000C8010E948F0066E0C8010E946E0095E8D8
:100290009A95F1F7000088E0E4E0F1E0DE0159967C
:1002A00001900D928A95E1F7AE01475E5F4F60E0E5
:1002B000C8010E94E20088E0E8E8F1E0DE01519622
:1002C00001900D928A95E1F7AE014F5E5F4F61E0BC
:1002D000C8010E94E20088E0ECE0F1E0DE0119963E
:1002E00001900D928A95E1F7AE01475F5F4F62E0A2
:1002F000C8010E94E20088E0E4E1F1E0DE0111962D
:1003000001900D928A95E1F7AE014F5F5F4F63E078
:10031000C8010E94E200A0960FB6F894DEBF0FBE9F
:10032000CDBFDF91CF911F910F910895FC011182F4
:100330001082138212820C940301EF92FF920F93AA
:100340001F93CF93DF93EC018B01BA017C018CEA00
:10035000E81A8EEFF80AF7012081318142E2429FCC
:10036000C001439F900D1124FE01E80FF91F118376
:10037000008302968C0F9D1F0E942803F701808145
:100380009181019691838083CA5ADE4F8881998139
:10039000800F911F9983888380E090E0DF91CF9157
:1003A0001F910F91FF90EF90089542E2469F9001B8
:1003B000479F300D11242E5F3F4F820F931F0895EA
:1003C00042E2469F9001479F300D1124820F931FF8
:1003D000FC01808191810895FC01EA5AFE4F8081E1
:1003E00091810895FC01EC5AFE4F8081918108951E
:1003F000CDB7DEB7C757D1400FB6F894DEBF0FBEFA
:10040000CDBF80E090E00E942F03CB010E941D032E
:100410005E012CE8A21A2EEFB20AC5010E949601D5
:10042000C5010E940301C5010E948F00CB5ADE4F17
:1004300019821882C555D140C95ADE4F19821882D7
:10044000C755D1404CE151E068E873E1CE01019617
:100450007C010E949D0149E351E068EB7BE0C7010C
:100460000E949D0147E551E06CED75E0C7010E94D7
:100470009D0140E751E060EA7FE0C7010E949D01D5
:10048000C7010E94F2014C01C12CD12C612C712CAE
:100490005E2C4F2C84EFE82EFF24F394C814D9046B
:1004A0006CF12FEF3FEF80E090E0FE01E75AFE4F46
:1004B0008E0F9F1FFC010081002E000C110B2017D6
:1004C0003107E1F1C5010E948F00B801852D942DFF
:1004D0000E94D501BC01C5010E94BA000E94180308
:1004E000B3010E94A402FFEF27EA31E6F150204059
:1004F0003040E1F700C000009801D7CFB601852D4C
:10050000942D0E94E001B7010E94A402830180E0C3
:1005100090E0861797072CF038019FEFC91AD90A87
:10052000BDCF0B311105C0F7FE01E75AFE4FE00FBA
:10053000F11FC08201960F5F1F4FEBCF0E9418037F
:10054000B3010E94A402D8CF97FB072E16F40094A3
:1005500007D077FD09D00E94B80207FC05D03EF411
:10056000909581959F4F0895709561957F4F08955F
:10057000AA1BBB1B51E107C0AA1FBB1FA617B707C9
:1005800010F0A61BB70B881F991F5A95A9F78095E5
:100590009095BC01CD0108958F929F92AF92BF922A
:1005A000CF92DF92EF92FF92CF93DF93EC016881BD
:1005B00079818A819B81611571058105910521F4FD
:1005C00064E279ED8BE597E02DE133EF41E050E017
:1005D0000E94420349015A019B01AC01A7EAB1E420
:1005E0000E9461036B017C01ACEEB4EFA5019401A4
:1005F0000E946F03DC01CB018C0D9D1DAE1DBF1D44
:10060000B7FF03C00197A109B04888839983AA83E3
:10061000BB839F77DF91CF91FF90EF90DF90CF90DA
:10062000BF90AF909F908F9008950E94CC02089544
:1006300080E091E00E94CC020895A0E0B0E08093B9
:10064000000190930101A0930201B093030108956A
:10065000FB01DC0101900D920020E1F70895FC01FF
:100660002FB7F89460919201709193018091940159
:10067000909195012FBF309721F060837183828321
:1006800093830895052E97FB1EF400940E9459034E
:1006900057FD07D00E94740307FC03D04EF40C945E
:1006A000590350954095309521953F4F4F4F5F4FDF
:1006B000089590958095709561957F4F8F4F9F4FCE
:1006C00008950E949603A59F900DB49F900DA49F3E
:1006D000800D911D11240895B7FF0C9461030E94B1
:1006E0006103821B930B0895A1E21A2EAA1BBB1B68
:1006F000FD010DC0AA1FBB1FEE1FFF1FA217B307EE
:10070000E407F50720F0A21BB30BE40BF50B661F03
:10071000771F881F991F1A9469F7609570958095C7
:1007200090959B01AC01BD01CF010895A29FB0013E
:10073000B39FC001A39F700D811D1124911DB29F15
:0E074000700D811D1124911D0895F894FFCFB6
:10074E000100000004000E010F110F00000C0A0939
:10075E000A0C000000060A120A060000456E206709
:10076E006F642062696C61666661722028666F72C2
:10077E00204861727279212900536B796E64612071
:10078E004D617274656E206174657220616C6C616E
:10079E002070616A657200427967676120737661C5
:1007AE0072743F2052696E672050657474657200D2
:1007BE004D79737465726965723F2052696E672058
:1007CE004C616E6762656E001F110A04040A111FE8
:0207DE00000019
:00000001FF
